{
  "_format": "hh-sol-artifact-1",
  "contractName": "PaymentScope",
  "sourceName": "contracts/PaymentScope.sol",
  "abi": [
    {
      "inputs": [
        {
          "internalType": "uint256",
          "name": "requested",
          "type": "uint256"
        },
        {
          "internalType": "uint256",
          "name": "remaining",
          "type": "uint256"
        }
      ],
      "name": "ExceedsLimit",
      "type": "error"
    },
    {
      "inputs": [],
      "name": "NotAgent",
      "type": "error"
    },
    {
      "inputs": [],
      "name": "NotOwner",
      "type": "error"
    },
    {
      "inputs": [],
      "name": "ScopeInactive",
      "type": "error"
    },
    {
      "inputs": [],
      "name": "ZeroAmount",
      "type": "error"
    },
    {
      "anonymous": false,
      "inputs": [
        {
          "indexed": true,
          "internalType": "bytes32",
          "name": "scopeId",
          "type": "bytes32"
        },
        {
          "indexed": true,
          "internalType": "address",
          "name": "to",
          "type": "address"
        },
        {
          "indexed": false,
          "internalType": "uint256",
          "name": "amount",
          "type": "uint256"
        },
        {
          "indexed": false,
          "internalType": "string",
          "name": "memo",
          "type": "string"
        }
      ],
      "name": "PaymentExecuted",
      "type": "event"
    },
    {
      "anonymous": false,
      "inputs": [
        {
          "indexed": true,
          "internalType": "bytes32",
          "name": "scopeId",
          "type": "bytes32"
        },
        {
          "indexed": true,
          "internalType": "address",
          "name": "owner",
          "type": "address"
        },
        {
          "indexed": true,
          "internalType": "address",
          "name": "agent",
          "type": "address"
        },
        {
          "indexed": false,
          "internalType": "uint256",
          "name": "maxAmount",
          "type": "uint256"
        },
        {
          "indexed": false,
          "internalType": "string",
          "name": "purpose",
          "type": "string"
        }
      ],
      "name": "ScopeCreated",
      "type": "event"
    },
    {
      "anonymous": false,
      "inputs": [
        {
          "indexed": true,
          "internalType": "bytes32",
          "name": "scopeId",
          "type": "bytes32"
        },
        {
          "indexed": false,
          "internalType": "uint256",
          "name": "refunded",
          "type": "uint256"
        }
      ],
      "name": "ScopeRevoked",
      "type": "event"
    },
    {
      "inputs": [
        {
          "internalType": "address",
          "name": "",
          "type": "address"
        },
        {
          "internalType": "uint256",
          "name": "",
          "type": "uint256"
        }
      ],
      "name": "agentScopes",
      "outputs": [
        {
          "internalType": "bytes32",
          "name": "",
          "type": "bytes32"
        }
      ],
      "stateMutability": "view",
      "type": "function"
    },
    {
      "inputs": [
        {
          "internalType": "address",
          "name": "agent",
          "type": "address"
        },
        {
          "internalType": "string",
          "name": "purpose",
          "type": "string"
        }
      ],
      "name": "createScope",
      "outputs": [
        {
          "internalType": "bytes32",
          "name": "scopeId",
          "type": "bytes32"
        }
      ],
      "stateMutability": "payable",
      "type": "function"
    },
    {
      "inputs": [
        {
          "internalType": "bytes32",
          "name": "scopeId",
          "type": "bytes32"
        },
        {
          "internalType": "address payable",
          "name": "to",
          "type": "address"
        },
        {
          "internalType": "uint256",
          "name": "amount",
          "type": "uint256"
        },
        {
          "internalType": "string",
          "name": "memo",
          "type": "string"
        }
      ],
      "name": "executePayment",
      "outputs": [],
      "stateMutability": "nonpayable",
      "type": "function"
    },
    {
      "inputs": [
        {
          "internalType": "address",
          "name": "agent",
          "type": "address"
        }
      ],
      "name": "getAgentScopes",
      "outputs": [
        {
          "internalType": "bytes32[]",
          "name": "",
          "type": "bytes32[]"
        }
      ],
      "stateMutability": "view",
      "type": "function"
    },
    {
      "inputs": [
        {
          "internalType": "bytes32",
          "name": "scopeId",
          "type": "bytes32"
        }
      ],
      "name": "remaining",
      "outputs": [
        {
          "internalType": "uint256",
          "name": "",
          "type": "uint256"
        }
      ],
      "stateMutability": "view",
      "type": "function"
    },
    {
      "inputs": [
        {
          "internalType": "bytes32",
          "name": "scopeId",
          "type": "bytes32"
        }
      ],
      "name": "revokeScope",
      "outputs": [],
      "stateMutability": "nonpayable",
      "type": "function"
    },
    {
      "inputs": [
        {
          "internalType": "bytes32",
          "name": "",
          "type": "bytes32"
        }
      ],
      "name": "scopes",
      "outputs": [
        {
          "internalType": "address",
          "name": "owner",
          "type": "address"
        },
        {
          "internalType": "address",
          "name": "agent",
          "type": "address"
        },
        {
          "internalType": "uint256",
          "name": "maxAmount",
          "type": "uint256"
        },
        {
          "internalType": "uint256",
          "name": "spentAmount",
          "type": "uint256"
        },
        {
          "internalType": "string",
          "name": "purpose",
          "type": "string"
        },
        {
          "internalType": "bool",
          "name": "active",
          "type": "bool"
        },
        {
          "internalType": "uint256",
          "name": "createdAt",
          "type": "uint256"
        }
      ],
      "stateMutability": "view",
      "type": "function"
    }
  ],
  "bytecode": "0x608060405234801561001057600080fd5b50611723806100206000396000f3fe6080604052600436106100705760003560e01c80634ddfd6c11161004e5780634ddfd6c114610132578063bc1ed74c14610162578063caf5aec91461019f578063e4996e97146101c857610070565b8063162bbbd4146100755780632b482eba146100b257806331931e76146100f5575b600080fd5b34801561008157600080fd5b5061009c60048036038101906100979190610c1e565b6101f1565b6040516100a99190610c77565b60405180910390f35b3480156100be57600080fd5b506100d960048036038101906100d49190610cbe565b610222565b6040516100ec9796959493929190610db4565b60405180910390f35b34801561010157600080fd5b5061011c60048036038101906101179190610e2a565b610339565b6040516101299190610f15565b60405180910390f35b61014c60048036038101906101479190610f9c565b6103d0565b6040516101599190610c77565b60405180910390f35b34801561016e57600080fd5b5061018960048036038101906101849190610cbe565b6106af565b6040516101969190610ffc565b60405180910390f35b3480156101ab57600080fd5b506101c660048036038101906101c19190611055565b6106e2565b005b3480156101d457600080fd5b506101ef60048036038101906101ea9190610cbe565b61094c565b005b6001602052816000526040600020818154811061020d57600080fd5b90600052602060002001600091509150505481565b60006020528060005260406000206000915090508060000160009054906101000a900473ffffffffffffffffffffffffffffffffffffffff16908060010160009054906101000a900473ffffffffffffffffffffffffffffffffffffffff169080600201549080600301549080600401805461029d9061110c565b80601f01602080910402602001604051908101604052809291908181526020018280546102c99061110c565b80156103165780601f106102eb57610100808354040283529160200191610316565b820191906000526020600020905b8154815290600101906020018083116102f957829003601f168201915b5050505050908060050160009054906101000a900460ff16908060060154905087565b6060600160008373ffffffffffffffffffffffffffffffffffffffff1673ffffffffffffffffffffffffffffffffffffffff1681526020019081526020016000208054806020026020016040519081016040528092919081815260200182805480156103c457602002820191906000526020600020905b8154815260200190600101908083116103b0575b50505050509050919050565b600080340361040b576040517f1f2a200500000000000000000000000000000000000000000000000000000000815260040160405180910390fd5b3384424460405160200161042294939291906111a6565b6040516020818303038152906040528051906020012090506040518060e001604052803373ffffffffffffffffffffffffffffffffffffffff1681526020018573ffffffffffffffffffffffffffffffffffffffff1681526020013481526020016000815260200184848080601f016020809104026020016040519081016040528093929190818152602001838380828437600081840152601f19601f8201169050808301925050505050505081526020016001151581526020014281525060008083815260200190815260200160002060008201518160000160006101000a81548173ffffffffffffffffffffffffffffffffffffffff021916908373ffffffffffffffffffffffffffffffffffffffff16021790555060208201518160010160006101000a81548173ffffffffffffffffffffffffffffffffffffffff021916908373ffffffffffffffffffffffffffffffffffffffff160217905550604082015181600201556060820151816003015560808201518160040190816105aa91906113cf565b5060a08201518160050160006101000a81548160ff02191690831515021790555060c08201518160060155905050600160008573ffffffffffffffffffffffffffffffffffffffff1673ffffffffffffffffffffffffffffffffffffffff1681526020019081526020016000208190806001815401808255809150506001900390600052602060002001600090919091909150558373ffffffffffffffffffffffffffffffffffffffff163373ffffffffffffffffffffffffffffffffffffffff16827fc1652dd96ca91be4957df8bef6538927297afb2b12933a5ee107d37316bc5b513487876040516106a0939291906114dd565b60405180910390a49392505050565b6000806000808481526020019081526020016000209050806003015481600201546106da919061153e565b915050919050565b600080600087815260200190815260200160002090508060010160009054906101000a900473ffffffffffffffffffffffffffffffffffffffff1673ffffffffffffffffffffffffffffffffffffffff163373ffffffffffffffffffffffffffffffffffffffff1614610781576040517f0d9ab13f00000000000000000000000000000000000000000000000000000000815260040160405180910390fd5b8060050160009054906101000a900460ff166107c9576040517f6deafbc500000000000000000000000000000000000000000000000000000000815260040160405180910390fd5b6000816003015482600201546107df919061153e565b9050808511156108285784816040517f89fe1d9200000000000000000000000000000000000000000000000000000000815260040161081f929190611572565b60405180910390fd5b8482600301600082825461083c919061159b565b9250508190555060008673ffffffffffffffffffffffffffffffffffffffff168660405161086990611600565b60006040518083038185875af1925050503d80600081146108a6576040519150601f19603f3d011682016040523d82523d6000602084013e6108ab565b606091505b50509050806108ef576040517f08c379a00000000000000000000000000000000000000000000000000000000081526004016108e690611661565b60405180910390fd5b8673ffffffffffffffffffffffffffffffffffffffff16887fec53dd370af028458e12759302c31ad573ed8ebf51c05f72ed1b4278d34be41288888860405161093a939291906114dd565b60405180910390a35050505050505050565b600080600083815260200190815260200160002090508060000160009054906101000a900473ffffffffffffffffffffffffffffffffffffffff1673ffffffffffffffffffffffffffffffffffffffff163373ffffffffffffffffffffffffffffffffffffffff16146109eb576040517f30cd747100000000000000000000000000000000000000000000000000000000815260040160405180910390fd5b8060050160009054906101000a900460ff16610a33576040517f6deafbc500000000000000000000000000000000000000000000000000000000815260040160405180910390fd5b60008160050160006101000a81548160ff021916908315150217905550600081600301548260020154610a66919061153e565b90506000811115610b435760008260000160009054906101000a900473ffffffffffffffffffffffffffffffffffffffff1673ffffffffffffffffffffffffffffffffffffffff1682604051610abb90611600565b60006040518083038185875af1925050503d8060008114610af8576040519150601f19603f3d011682016040523d82523d6000602084013e610afd565b606091505b5050905080610b41576040517f08c379a0000000000000000000000000000000000000000000000000000000008152600401610b38906116cd565b60405180910390fd5b505b827fc4b6555ebfa83d211ff9617854198300a05a7c563cff056aa654ca111c33766b82604051610b739190610ffc565b60405180910390a2505050565b600080fd5b600080fd5b600073ffffffffffffffffffffffffffffffffffffffff82169050919050565b6000610bb582610b8a565b9050919050565b610bc581610baa565b8114610bd057600080fd5b50565b600081359050610be281610bbc565b92915050565b6000819050919050565b610bfb81610be8565b8114610c0657600080fd5b50565b600081359050610c1881610bf2565b92915050565b60008060408385031215610c3557610c34610b80565b5b6000610c4385828601610bd3565b9250506020610c5485828601610c09565b9150509250929050565b6000819050919050565b610c7181610c5e565b82525050565b6000602082019050610c8c6000830184610c68565b92915050565b610c9b81610c5e565b8114610ca657600080fd5b50565b600081359050610cb881610c92565b92915050565b600060208284031215610cd457610cd3610b80565b5b6000610ce284828501610ca9565b91505092915050565b610cf481610baa565b82525050565b610d0381610be8565b82525050565b600081519050919050565b600082825260208201905092915050565b60005b83811015610d43578082015181840152602081019050610d28565b60008484015250505050565b6000601f19601f8301169050919050565b6000610d6b82610d09565b610d758185610d14565b9350610d85818560208601610d25565b610d8e81610d4f565b840191505092915050565b60008115159050919050565b610dae81610d99565b82525050565b600060e082019050610dc9600083018a610ceb565b610dd66020830189610ceb565b610de36040830188610cfa565b610df06060830187610cfa565b8181036080830152610e028186610d60565b9050610e1160a0830185610da5565b610e1e60c0830184610cfa565b98975050505050505050565b600060208284031215610e4057610e3f610b80565b5b6000610e4e84828501610bd3565b91505092915050565b600081519050919050565b600082825260208201905092915050565b6000819050602082019050919050565b610e8c81610c5e565b82525050565b6000610e9e8383610e83565b60208301905092915050565b6000602082019050919050565b6000610ec282610e57565b610ecc8185610e62565b9350610ed783610e73565b8060005b83811015610f08578151610eef8882610e92565b9750610efa83610eaa565b925050600181019050610edb565b5085935050505092915050565b60006020820190508181036000830152610f2f8184610eb7565b905092915050565b600080fd5b600080fd5b600080fd5b60008083601f840112610f5c57610f5b610f37565b5b8235905067ffffffffffffffff811115610f7957610f78610f3c565b5b602083019150836001820283011115610f9557610f94610f41565b5b9250929050565b600080600060408486031215610fb557610fb4610b80565b5b6000610fc386828701610bd3565b935050602084013567ffffffffffffffff811115610fe457610fe3610b85565b5b610ff086828701610f46565b92509250509250925092565b60006020820190506110116000830184610cfa565b92915050565b600061102282610b8a565b9050919050565b61103281611017565b811461103d57600080fd5b50565b60008135905061104f81611029565b92915050565b60008060008060006080868803121561107157611070610b80565b5b600061107f88828901610ca9565b955050602061109088828901611040565b94505060406110a188828901610c09565b935050606086013567ffffffffffffffff8111156110c2576110c1610b85565b5b6110ce88828901610f46565b92509250509295509295909350565b7f4e487b7100000000000000000000000000000000000000000000000000000000600052602260045260246000fd5b6000600282049050600182168061112457607f821691505b602082108103611137576111366110dd565b5b50919050565b60008160601b9050919050565b60006111558261113d565b9050919050565b60006111678261114a565b9050919050565b61117f61117a82610baa565b61115c565b82525050565b6000819050919050565b6111a061119b82610be8565b611185565b82525050565b60006111b2828761116e565b6014820191506111c2828661116e565b6014820191506111d2828561118f565b6020820191506111e2828461118f565b60208201915081905095945050505050565b7f4e487b7100000000000000000000000000000000000000000000000000000000600052604160045260246000fd5b60008190508160005260206000209050919050565b60006020601f8301049050919050565b600082821b905092915050565b6000600883026112857fffffffffffffffffffffffffffffffffffffffffffffffffffffffffffffffff82611248565b61128f8683611248565b95508019841693508086168417925050509392505050565b6000819050919050565b60006112cc6112c76112c284610be8565b6112a7565b610be8565b9050919050565b6000819050919050565b6112e6836112b1565b6112fa6112f2826112d3565b848454611255565b825550505050565b600090565b61130f611302565b61131a8184846112dd565b505050565b5b8181101561133e57611333600082611307565b600181019050611320565b5050565b601f8211156113835761135481611223565b61135d84611238565b8101602085101561136c578190505b61138061137885611238565b83018261131f565b50505b505050565b600082821c905092915050565b60006113a660001984600802611388565b1980831691505092915050565b60006113bf8383611395565b9150826002028217905092915050565b6113d882610d09565b67ffffffffffffffff8111156113f1576113f06111f4565b5b6113fb825461110c565b611406828285611342565b600060209050601f8311600181146114395760008415611427578287015190505b61143185826113b3565b865550611499565b601f19841661144786611223565b60005b8281101561146f5784890151825560018201915060208501945060208101905061144a565b8683101561148c5784890151611488601f891682611395565b8355505b6001600288020188555050505b505050505050565b82818337600083830152505050565b60006114bc8385610d14565b93506114c98385846114a1565b6114d283610d4f565b840190509392505050565b60006040820190506114f26000830186610cfa565b81810360208301526115058184866114b0565b9050949350505050565b7f4e487b7100000000000000000000000000000000000000000000000000000000600052601160045260246000fd5b600061154982610be8565b915061155483610be8565b925082820390508181111561156c5761156b61150f565b5b92915050565b60006040820190506115876000830185610cfa565b6115946020830184610cfa565b9392505050565b60006115a682610be8565b91506115b183610be8565b92508282019050808211156115c9576115c861150f565b5b92915050565b600081905092915050565b50565b60006115ea6000836115cf565b91506115f5826115da565b600082019050919050565b600061160b826115dd565b9150819050919050565b7f5472616e73666572206661696c65640000000000000000000000000000000000600082015250565b600061164b600f83610d14565b915061165682611615565b602082019050919050565b6000602082019050818103600083015261167a8161163e565b9050919050565b7f526566756e64206661696c656400000000000000000000000000000000000000600082015250565b60006116b7600d83610d14565b91506116c282611681565b602082019050919050565b600060208201905081810360008301526116e6816116aa565b905091905056fea2646970667358221220d120cc9e74686681f6c8a13cad392fe149fd96c257a22275ceae8a145b41ef4964736f6c63430008140033",
  "linkReferences": {},
  "deployedLinkReferences": {}
}